{
    "contractName": "Voting",
    "abi": [
        {
            "anonymous": false,
            "inputs": [
                {
                    "indexed": false,
                    "internalType": "uint256",
                    "name": "electionId",
                    "type": "uint256"
                },
                {
                    "indexed": false,
                    "internalType": "address[]",
                    "name": "BlacklistedAddresses",
                    "type": "address[]"
                }
            ],
            "name": "BlacklistUpdated",
            "type": "event"
        },
        {
            "anonymous": false,
            "inputs": [
                {
                    "indexed": true,
                    "internalType": "uint256",
                    "name": "electionId",
                    "type": "uint256"
                },
                {
                    "indexed": false,
                    "internalType": "string",
                    "name": "category",
                    "type": "string"
                },
                {
                    "indexed": false,
                    "internalType": "string",
                    "name": "candidate",
                    "type": "string"
                }
            ],
            "name": "CandidateAdded",
            "type": "event"
        },
        {
            "anonymous": false,
            "inputs": [
                {
                    "indexed": true,
                    "internalType": "uint256",
                    "name": "electionId",
                    "type": "uint256"
                }
            ],
            "name": "ElectionClosed",
            "type": "event"
        },
        {
            "anonymous": false,
            "inputs": [
                {
                    "indexed": true,
                    "internalType": "uint256",
                    "name": "electionId",
                    "type": "uint256"
                },
                {
                    "indexed": false,
                    "internalType": "string",
                    "name": "name",
                    "type": "string"
                }
            ],
            "name": "ElectionCreated",
            "type": "event"
        },
        {
            "anonymous": false,
            "inputs": [
                {
                    "indexed": true,
                    "internalType": "uint256",
                    "name": "electionId",
                    "type": "uint256"
                },
                {
                    "indexed": false,
                    "internalType": "address",
                    "name": "organizer",
                    "type": "address"
                },
                {
                    "indexed": false,
                    "internalType": "uint256",
                    "name": "amount",
                    "type": "uint256"
                }
            ],
            "name": "FundsWithdrawn",
            "type": "event"
        },
        {
            "anonymous": false,
            "inputs": [
                {
                    "indexed": true,
                    "internalType": "uint256",
                    "name": "electionId",
                    "type": "uint256"
                },
                {
                    "indexed": false,
                    "internalType": "address",
                    "name": "voter",
                    "type": "address"
                },
                {
                    "indexed": false,
                    "internalType": "string",
                    "name": "category",
                    "type": "string"
                },
                {
                    "indexed": false,
                    "internalType": "string",
                    "name": "candidate",
                    "type": "string"
                }
            ],
            "name": "VoteCast",
            "type": "event"
        },
        {
            "anonymous": false,
            "inputs": [
                {
                    "indexed": true,
                    "internalType": "uint256",
                    "name": "electionId",
                    "type": "uint256"
                },
                {
                    "indexed": false,
                    "internalType": "address",
                    "name": "voter",
                    "type": "address"
                },
                {
                    "indexed": false,
                    "internalType": "string",
                    "name": "category",
                    "type": "string"
                },
                {
                    "indexed": false,
                    "internalType": "string",
                    "name": "candidate",
                    "type": "string"
                }
            ],
            "name": "VoteRevoked",
            "type": "event"
        },
        {
            "anonymous": false,
            "inputs": [
                {
                    "indexed": false,
                    "internalType": "uint256",
                    "name": "electionId",
                    "type": "uint256"
                },
                {
                    "indexed": false,
                    "internalType": "address[]",
                    "name": "whitelistedAddresses",
                    "type": "address[]"
                }
            ],
            "name": "WhitelistUpdated",
            "type": "event"
        },
        {
            "inputs": [
                {
                    "internalType": "uint256",
                    "name": "_electionId",
                    "type": "uint256"
                },
                {
                    "internalType": "address[]",
                    "name": "_addresses",
                    "type": "address[]"
                }
            ],
            "name": "addBlacklistlist",
            "outputs": [],
            "stateMutability": "nonpayable",
            "type": "function"
        },
        {
            "inputs": [
                {
                    "internalType": "uint256",
                    "name": "_electionId",
                    "type": "uint256"
                },
                {
                    "internalType": "string",
                    "name": "_category",
                    "type": "string"
                },
                {
                    "internalType": "string[]",
                    "name": "_candidates",
                    "type": "string[]"
                }
            ],
            "name": "addCandidates",
            "outputs": [],
            "stateMutability": "nonpayable",
            "type": "function"
        },
        {
            "inputs": [
                {
                    "internalType": "uint256",
                    "name": "_electionId",
                    "type": "uint256"
                },
                {
                    "internalType": "address[]",
                    "name": "_addresses",
                    "type": "address[]"
                }
            ],
            "name": "addWhitelist",
            "outputs": [],
            "stateMutability": "nonpayable",
            "type": "function"
        },
        {
            "inputs": [
                {
                    "internalType": "uint256",
                    "name": "_electionId",
                    "type": "uint256"
                }
            ],
            "name": "closeElection",
            "outputs": [],
            "stateMutability": "nonpayable",
            "type": "function"
        },
        {
            "inputs": [
                {
                    "internalType": "string",
                    "name": "_name",
                    "type": "string"
                },
                {
                    "internalType": "string",
                    "name": "_description",
                    "type": "string"
                },
                {
                    "internalType": "uint256",
                    "name": "_startTime",
                    "type": "uint256"
                },
                {
                    "internalType": "uint256",
                    "name": "_endTime",
                    "type": "uint256"
                },
                {
                    "internalType": "string[]",
                    "name": "_categories",
                    "type": "string[]"
                },
                {
                    "internalType": "uint256",
                    "name": "_costPerVote",
                    "type": "uint256"
                },
                {
                    "internalType": "uint256",
                    "name": "_maxVotePerVoter",
                    "type": "uint256"
                }
            ],
            "name": "createElection",
            "outputs": [],
            "stateMutability": "nonpayable",
            "type": "function"
        },
        {
            "inputs": [],
            "name": "electionCount",
            "outputs": [
                {
                    "internalType": "uint256",
                    "name": "",
                    "type": "uint256"
                }
            ],
            "stateMutability": "view",
            "type": "function"
        },
        {
            "inputs": [
                {
                    "internalType": "uint256",
                    "name": "",
                    "type": "uint256"
                }
            ],
            "name": "elections",
            "outputs": [
                {
                    "internalType": "string",
                    "name": "name",
                    "type": "string"
                },
                {
                    "internalType": "string",
                    "name": "description",
                    "type": "string"
                },
                {
                    "internalType": "uint256",
                    "name": "startTime",
                    "type": "uint256"
                },
                {
                    "internalType": "uint256",
                    "name": "endTime",
                    "type": "uint256"
                },
                {
                    "internalType": "bool",
                    "name": "privateElection",
                    "type": "bool"
                },
                {
                    "internalType": "uint256",
                    "name": "maxVotesPerVoter",
                    "type": "uint256"
                },
                {
                    "internalType": "uint256",
                    "name": "costPerVote",
                    "type": "uint256"
                },
                {
                    "internalType": "address payable",
                    "name": "organizer",
                    "type": "address"
                },
                {
                    "internalType": "uint256",
                    "name": "organizerFund",
                    "type": "uint256"
                },
                {
                    "internalType": "bool",
                    "name": "isActive",
                    "type": "bool"
                }
            ],
            "stateMutability": "view",
            "type": "function"
        },
        {
            "inputs": [],
            "name": "fund",
            "outputs": [
                {
                    "internalType": "uint256",
                    "name": "",
                    "type": "uint256"
                }
            ],
            "stateMutability": "view",
            "type": "function"
        },
        {
            "inputs": [],
            "name": "platformFeePercentage",
            "outputs": [
                {
                    "internalType": "uint256",
                    "name": "",
                    "type": "uint256"
                }
            ],
            "stateMutability": "view",
            "type": "function"
        },
        {
            "inputs": [
                {
                    "internalType": "uint256",
                    "name": "_electionId",
                    "type": "uint256"
                },
                {
                    "internalType": "string",
                    "name": "_category",
                    "type": "string"
                },
                {
                    "internalType": "string",
                    "name": "_candidate",
                    "type": "string"
                }
            ],
            "name": "unvote",
            "outputs": [],
            "stateMutability": "nonpayable",
            "type": "function"
        },
        {
            "inputs": [],
            "name": "unvoteFeePercentage",
            "outputs": [
                {
                    "internalType": "uint256",
                    "name": "",
                    "type": "uint256"
                }
            ],
            "stateMutability": "view",
            "type": "function"
        },
        {
            "inputs": [
                {
                    "internalType": "uint256",
                    "name": "_electionId",
                    "type": "uint256"
                },
                {
                    "internalType": "string",
                    "name": "_category",
                    "type": "string"
                },
                {
                    "internalType": "string",
                    "name": "_candidate",
                    "type": "string"
                }
            ],
            "name": "vote",
            "outputs": [],
            "stateMutability": "payable",
            "type": "function"
        },
        {
            "inputs": [
                {
                    "internalType": "uint256",
                    "name": "_electionId",
                    "type": "uint256"
                }
            ],
            "name": "withdrawFunds",
            "outputs": [],
            "stateMutability": "nonpayable",
            "type": "function"
        },
        {
            "stateMutability": "payable",
            "type": "receive"
        }
    ],
    "bytecode": "60808060405234602357600260035560048055600160055561148f90816100288239f35b5f80fdfe6080604052600436101561005d575b3615610018575f80fd5b60405162461bcd60e51b815260206004820152601c60248201527f446972656374207472616e7366657273206e6f7420616c6c6f776564000000006044820152606490fd5b5f3560e01c806302a5f85614610c3557806309e33d0714610bc4578063155dd5ee14610a5b5780635e6fef0114610990578063794dab61146109735780637da3b49a146107c05780638aa1e44e146106f3578063997d2830146106d6578063b108475914610445578063b60d428814610428578063cdd78cfc1461040b578063e8a583161461033b5763ff7fc2f00361000e5734610337576100fe366110bb565b61010c600160055414611299565b5f600555825f525f60205261012a60ff601060405f200154166112e4565b825f525f60205261015660ff61014f610149600a60405f20018661133d565b8461133d565b54166113a5565b5f83815260208181526040808320338452600c810192839052922054909190156102fd57600b81019161019261018c848761133d565b8561133d565b54156102c357600d820154906003549081606403606481116102af576101ba60649185611227565b049060646101d46101ce60045495866113fd565b86611227565b049260640395606487116102af57600f5f97966102418998968c956102168d61021061024d9860648f9e8f9e61020991611227565b049a61133d565b9061133d565b610220815461144d565b90553389526020526040882080546102379061144d565b90556002546113fd565b600255019182546113fd565b90558181156102a6575b3390f11561029b577fbc678e5f62a148bdc51ef79028636e717f29873c42e6e183a566d04a82753736916102916040519283923384611417565b0390a26001600555005b6040513d5f823e3d90fd5b506108fc610257565b634e487b7160e01b5f52601160045260245ffd5b60405162461bcd60e51b81526020600482015260126024820152714e6f20766f74657320746f207265766f6b6560701b6044820152606490fd5b60405162461bcd60e51b8152602060048201526012602482015271165bdd481a185d99481b9bdd081d9bdd195960721b6044820152606490fd5b5f80fd5b346103375761034936611027565b815f525f60205261036a60018060a01b03600e60405f20015416331461123a565b815f525f602052600560405f2001600160ff198254161790555f5b81518110156103d4575f838152602081905260409020600191906008016001600160a01b036103b48386611329565b5116838060a01b03165f5260205260405f2060ff19815416905501610385565b507fdca43d59e4e860788f4582ae9b451ed1bd5fe30eff5f14edd3ecd95ba1b47273916104066040519283928361135c565b0390a1005b34610337575f366003190112610337576020600454604051908152f35b34610337575f366003190112610337576020600254604051908152f35b61044e366110bb565b61045c600160055414611299565b5f600555825f525f60205261047a60ff601060405f200154166112e4565b825f525f602052600260405f200154421015806106bc575b61049b906112e4565b825f525f602052600d60405f200154341061067757825f525f6020526104cf60ff61014f610149600a60405f20018661133d565b825f525f60205260ff600560405f200154166105fc575b5f83815260208181526040808320338452600c8101835290832054868452929091526006015411156105c1577f432f42e98db4cdfc57a64032820026445b5361912922e74c9691338f403ebe4991835f525f602052600c60405f20606461054f60045434611227565b0461056661055d82346113fd565b9160025461140a565b600255610578600f830191825461140a565b905561058a61018c600b83018561133d565b610594815461110b565b9055335f90815291016020526040902080546105af9061110b565b90556102916040519283923384611417565b60405162461bcd60e51b8152602060048201526013602482015272159bdd19481b1a5b5a5d08195e18d959591959606a1b6044820152606490fd5b5f8381526020818152604080832033845260080190915290205460ff166104e65760405162461bcd60e51b815260206004820152602c60248201527f596f7520617265206e6f7420616c6c6f77656420746f20766f746520696e207460448201526b3434b99032b632b1ba34b7b760a11b6064820152608490fd5b60405162461bcd60e51b815260206004820152601f60248201527f496e73756666696369656e742066756e647320746f206361737420766f7465006044820152606490fd5b505f83815260208190526040902060030154421115610492565b34610337575f366003190112610337576020600154604051908152f35b346103375761070136611027565b815f525f60205261072260018060a01b03600e60405f20015416331461123a565b815f525f602052600560405f2001600160ff198254161790555f5b815181101561078e575f838152602081905260409020600191906008016001600160a01b0361076c8386611329565b5116838060a01b03165f5260205260405f208260ff198254161790550161073d565b507f82ba888d3dd2a2ccef08a8044385f526574698b9fbe41da5054b0ca5106c8873916104066040519283928361135c565b34610337576060366003190112610337576004356024356001600160401b038111610337576107f3903690600401610e41565b906044356001600160401b03811161033757610813903690600401610ead565b90805f525f60205261083560018060a01b03600e60405f20015416331461123a565b805f525f60205261084f60ff601060405f200154166112e4565b5f818152602081905260408120835193600a8201925b85811061086e57005b6108788183611329565b519060ff610889610149878b61133d565b54161561089b575b6001915001610865565b6108ae6108a8868a61133d565b8361133d565b805460ff191660011790556108c6600985018961133d565b805490600160401b82101561095f576001820180825582101561094b576109358a610943866109216001988d977fe64f834082661dd9ed89427b87edb6270fd6dad17198b0938f0edd058914c87f975f5260205f200161112f565b604051938493604085526040850190611003565b908382036020850152611003565b0390a2610891565b634e487b7160e01b5f52603260045260245ffd5b634e487b7160e01b5f52604160045260245ffd5b34610337575f366003190112610337576020600354604051908152f35b34610337576020366003190112610337576004355f525f602052610a1a60405f206109ba81610f63565b906109c760018201610f63565b600282015491600381015460ff6005830154166006830154600d8401549160018060a01b03600e8601541693610a2860ff6010600f89015498015416976040519b8c9b6101408d526101408d0190611003565b908b820360208d0152611003565b9760408a015260608901521515608088015260a087015260c086015260e085015261010084015215156101208301520390f35b3461033757602036600319011261033757600435805f525f602052610a9060018060a01b03600e60405f20015416331461123a565b610a9e600160055414611299565b5f600555805f525f60205260405f2060ff601082015416610b6d57600f81018054918215610b1e575f91829055600e015481908190819085906001600160a01b031682f11561029b5760407ff440aec6b52895984d061d622e6edeba6210f7c3e059be920663140c084560d7918151903382526020820152a26001600555005b60405162461bcd60e51b815260206004820152602160248201527f4e6f2066756e647320617661696c61626c6520666f72207769746864726177616044820152601b60fa1b6064820152608490fd5b60405162461bcd60e51b815260206004820152602960248201527f456c656374696f6e206d75737420626520636c6f73656420746f2077697468646044820152687261772066756e647360b81b6064820152608490fd5b3461033757602036600319011261033757600435805f525f602052610bf960018060a01b03600e60405f20015416331461123a565b805f525f602052601060405f200160ff1981541690557f393c4b8e62f1195313cf17dcf00793c668ddfc35881cd8015559c074f6d61e835f80a2005b346103375760e0366003190112610337576004356001600160401b03811161033757610c65903690600401610e41565b6024356001600160401b03811161033757610c84903690600401610e41565b6084356001600160401b03811161033757610ca3903690600401610ead565b610cae60015461110b565b806001555f525f602052610cd360405f2092610cca858561112f565b6001840161112f565b6044356002830155606435600383015560048201815191600160401b831161095f578154838355808410610da9575b50602001905f5260205f205f915b838310610d8c5760a435600d86015560108501805460ff19166001908117909155600e860180546001600160a01b0319163317905560c43560068701555460405160208082527f52be7c4e77b4de76b7607d621492061fe13b58597e72dfb5e51ab8f6187ed14191908190610d879082018b611003565b0390a2005b6001602082610d9d8394518661112f565b01920192019190610d10565b825f528360205f2091820191015b818110610dc45750610d02565b80610dd160019254610f2b565b80610dde575b5001610db7565b601f81118314610df357505f81555b88610dd7565b610e0f90825f5283601f60205f20920160051c82019101611119565b805f525f6020812081835555610ded565b90601f801991011681019081106001600160401b0382111761095f57604052565b81601f82011215610337578035906001600160401b03821161095f5760405192610e75601f8401601f191660200185610e20565b8284526020838301011161033757815f926020809301838601378301015290565b6001600160401b03811161095f5760051b60200190565b9080601f83011215610337578135610ec481610e96565b92610ed26040519485610e20565b81845260208085019260051b820101918383116103375760208201905b838210610efe57505050505090565b81356001600160401b03811161033757602091610f2087848094880101610e41565b815201910190610eef565b90600182811c92168015610f59575b6020831014610f4557565b634e487b7160e01b5f52602260045260245ffd5b91607f1691610f3a565b9060405191825f825492610f7684610f2b565b8084529360018116908115610fe15750600114610f9d575b50610f9b92500383610e20565b565b90505f9291925260205f20905f915b818310610fc5575050906020610f9b928201015f610f8e565b6020919350806001915483858901015201910190918492610fac565b905060209250610f9b94915060ff191682840152151560051b8201015f610f8e565b805180835260209291819084018484015e5f828201840152601f01601f1916010190565b9060406003198301126103375760043591602435906001600160401b03821161033757806023830112156103375781600401359061106482610e96565b926110726040519485610e20565b8284526024602085019360051b82010191821161033757602401915b81831061109b5750505090565b82356001600160a01b03811681036103375781526020928301920161108e565b606060031982011261033757600435916024356001600160401b03811161033757826110e991600401610e41565b91604435906001600160401b0382116103375761110891600401610e41565b90565b5f1981146102af5760010190565b818110611124575050565b5f8155600101611119565b91909182516001600160401b03811161095f5761114c8254610f2b565b601f81116111ec575b506020601f821160011461118e57819293945f92611183575b50508160011b915f199060031b1c1916179055565b015190505f8061116e565b601f19821690835f52805f20915f5b8181106111d4575095836001959697106111bc575b505050811b019055565b01515f1960f88460031b161c191690555f80806111b2565b9192602060018192868b01518155019401920161119d565b61121790835f5260205f20601f840160051c8101916020851061121d575b601f0160051c0190611119565b5f611155565b909150819061120a565b818102929181159184041417156102af57565b1561124157565b60405162461bcd60e51b815260206004820152602a60248201527f4f6e6c7920746865206f7267616e697a65722063616e20706572666f726d20746044820152693434b99030b1ba34b7b760b11b6064820152608490fd5b156112a057565b606460405162461bcd60e51b815260206004820152602060248201527f5265656e7472616e63792047756172643a207265656e7472616e742063616c6c6044820152fd5b156112eb57565b60405162461bcd60e51b8152602060048201526016602482015275456c656374696f6e206973206e6f742061637469766560501b6044820152606490fd5b805182101561094b5760209160051b010190565b6040518151909260209284929081908501845e82019081520301902090565b6060602091604081019381526040838201528451809452019201905f5b8181106113865750505090565b82516001600160a01b0316845260209384019390920191600101611379565b156113ac57565b60405162461bcd60e51b815260206004820152602360248201527f496e76616c69642063616e64696461746520666f7220746869732063617465676044820152626f727960e81b6064820152608490fd5b919082039182116102af57565b919082018092116102af57565b6001600160a01b03909116815260606020820181905261110893919261143f91840190611003565b916040818403910152611003565b80156102af575f19019056fea264697066735822122007f350b898fb1d8b9b5fe143d119ac8cfb6f145306b268dfe6891f78ff31242d64736f6c634300081c0033",
    "sourcePath": "/home/cy63r_4lph4/Documents/Echain/echain-mvp/contracts/Voting.sol",
    "compiler": {
        "name": "solc",
        "version": "0.8.28+commit.7893614a"
    },
    "functionHashes": {
        "addBlacklistlist(uint256,address[])": "e8a58316",
        "addCandidates(uint256,string,string[])": "7da3b49a",
        "addWhitelist(uint256,address[])": "8aa1e44e",
        "closeElection(uint256)": "09e33d07",
        "createElection(string,string,uint256,uint256,string[],uint256,uint256)": "02a5f856",
        "electionCount()": "997d2830",
        "elections(uint256)": "5e6fef01",
        "fund()": "b60d4288",
        "platformFeePercentage()": "cdd78cfc",
        "unvote(uint256,string,string)": "ff7fc2f0",
        "unvoteFeePercentage()": "794dab61",
        "vote(uint256,string,string)": "b1084759",
        "withdrawFunds(uint256)": "155dd5ee"
    },
    "gasEstimates": {
        "creation": {
            "codeDepositCost": "1052600",
            "executionCost": "67420",
            "totalCost": "1120020"
        },
        "external": {
            "addBlacklistlist(uint256,address[])": "infinite",
            "addCandidates(uint256,string,string[])": "infinite",
            "addWhitelist(uint256,address[])": "infinite",
            "closeElection(uint256)": "27799",
            "createElection(string,string,uint256,uint256,string[],uint256,uint256)": "infinite",
            "electionCount()": "2402",
            "elections(uint256)": "infinite",
            "fund()": "2446",
            "platformFeePercentage()": "2468",
            "unvote(uint256,string,string)": "infinite",
            "unvoteFeePercentage()": "2336",
            "vote(uint256,string,string)": "infinite",
            "withdrawFunds(uint256)": "infinite"
        }
    }
}