{
  "_format": "hh-sol-artifact-1",
  "contractName": "EchainManager",
  "sourceName": "contracts/EchainManager.sol",
  "abi": [
    {
      "inputs": [],
      "stateMutability": "nonpayable",
      "type": "constructor"
    },
    {
      "anonymous": false,
      "inputs": [
        {
          "indexed": false,
          "internalType": "address",
          "name": "votingContract",
          "type": "address"
        },
        {
          "indexed": false,
          "internalType": "address",
          "name": "ticketingContract",
          "type": "address"
        }
      ],
      "name": "ContractsSet",
      "type": "event"
    },
    {
      "anonymous": false,
      "inputs": [
        {
          "indexed": true,
          "internalType": "address",
          "name": "organizer",
          "type": "address"
        }
      ],
      "name": "OrganizerRegistered",
      "type": "event"
    },
    {
      "anonymous": false,
      "inputs": [
        {
          "indexed": true,
          "internalType": "address",
          "name": "oldOwner",
          "type": "address"
        },
        {
          "indexed": true,
          "internalType": "address",
          "name": "newOwner",
          "type": "address"
        }
      ],
      "name": "OwnershipTransferred",
      "type": "event"
    },
    {
      "stateMutability": "nonpayable",
      "type": "fallback"
    },
    {
      "inputs": [
        {
          "internalType": "address",
          "name": "user",
          "type": "address"
        }
      ],
      "name": "isOrganizer",
      "outputs": [
        {
          "internalType": "bool",
          "name": "",
          "type": "bool"
        }
      ],
      "stateMutability": "view",
      "type": "function"
    },
    {
      "inputs": [],
      "name": "maxCategoriesPerEvent",
      "outputs": [
        {
          "internalType": "uint8",
          "name": "",
          "type": "uint8"
        }
      ],
      "stateMutability": "view",
      "type": "function"
    },
    {
      "inputs": [],
      "name": "owner",
      "outputs": [
        {
          "internalType": "address",
          "name": "",
          "type": "address"
        }
      ],
      "stateMutability": "view",
      "type": "function"
    },
    {
      "inputs": [],
      "name": "registerOrganizer",
      "outputs": [],
      "stateMutability": "nonpayable",
      "type": "function"
    },
    {
      "inputs": [
        {
          "internalType": "address",
          "name": "_votingContract",
          "type": "address"
        },
        {
          "internalType": "address",
          "name": "_ticketingContract",
          "type": "address"
        }
      ],
      "name": "setContracts",
      "outputs": [],
      "stateMutability": "nonpayable",
      "type": "function"
    },
    {
      "inputs": [],
      "name": "ticketingContract",
      "outputs": [
        {
          "internalType": "address",
          "name": "",
          "type": "address"
        }
      ],
      "stateMutability": "view",
      "type": "function"
    },
    {
      "inputs": [],
      "name": "ticketingPlatformFee",
      "outputs": [
        {
          "internalType": "uint8",
          "name": "",
          "type": "uint8"
        }
      ],
      "stateMutability": "view",
      "type": "function"
    },
    {
      "inputs": [
        {
          "internalType": "address",
          "name": "newOwner",
          "type": "address"
        }
      ],
      "name": "transferOwnership",
      "outputs": [],
      "stateMutability": "nonpayable",
      "type": "function"
    },
    {
      "inputs": [],
      "name": "unvotePlatformFee",
      "outputs": [
        {
          "internalType": "uint8",
          "name": "",
          "type": "uint8"
        }
      ],
      "stateMutability": "view",
      "type": "function"
    },
    {
      "inputs": [
        {
          "internalType": "uint8",
          "name": "newFee",
          "type": "uint8"
        }
      ],
      "name": "updateTicketingPlatformFee",
      "outputs": [],
      "stateMutability": "nonpayable",
      "type": "function"
    },
    {
      "inputs": [
        {
          "internalType": "uint8",
          "name": "newFee",
          "type": "uint8"
        }
      ],
      "name": "updateUnvotePlatformFee",
      "outputs": [],
      "stateMutability": "nonpayable",
      "type": "function"
    },
    {
      "inputs": [
        {
          "internalType": "uint8",
          "name": "newFee",
          "type": "uint8"
        }
      ],
      "name": "updateVotingPlatformFee",
      "outputs": [],
      "stateMutability": "nonpayable",
      "type": "function"
    },
    {
      "inputs": [],
      "name": "votingContract",
      "outputs": [
        {
          "internalType": "address",
          "name": "",
          "type": "address"
        }
      ],
      "stateMutability": "view",
      "type": "function"
    },
    {
      "inputs": [],
      "name": "votingPlatformFee",
      "outputs": [
        {
          "internalType": "uint8",
          "name": "",
          "type": "uint8"
        }
      ],
      "stateMutability": "view",
      "type": "function"
    },
    {
      "stateMutability": "payable",
      "type": "receive"
    }
  ],
  "bytecode": "0x60808060405234603c576004805463ffffffff1916630505020417905560028054336001600160a01b03199091161790556106d390816100428239f35b600080fdfe6080806040526004361015610065575b50361561006057346100605760405162461bcd60e51b815260206004820152601760248201527f46756e6374696f6e20646f6573206e6f742065786973740000000000000000006044820152606490fd5b600080fd5b60003560e01c9081632248d685146105c05750806341676f151461058157806350094bf41461055d57806358906fa114610522578063791189271461047e57806388e4431d146104395780638da5cb5b14610410578063ae04b308146103ef578063af2be062146103a6578063af3bb0a214610382578063c1fc006a14610359578063c623c8b314610335578063d8952a49146101bc5763f2fde38b1461010c573861000f565b34610060576020366003190112610060576101256105e4565b6002546001600160a01b0381169161013e338414610651565b6001600160a01b03169182156101855782907f8be0079c531659141344cd1fd0a4f28419497f9722a3daafe3b4186f6b6457e0600080a36001600160a01b03191617600255005b60405162461bcd60e51b815260206004820152600f60248201526e496e76616c6964206164647265737360881b6044820152606490fd5b34610060576040366003190112610060576101d56105e4565b6024356001600160a01b03811691908281036100605761020060018060a01b03600254163314610651565b600054906001600160a01b0382161580610322575b156102e557823b151590816102da575b5015610295577f14662a0fccd762a05d5e1fa6afdd204554c4cf90fe58b5c5947f664fb71925f59260409260018060a01b031680926bffffffffffffffffffffffff60a01b1617600055806bffffffffffffffffffffffff60a01b600154161760015582519182526020820152a1005b60405162461bcd60e51b815260206004820152601b60248201527f416464726573736573206d75737420626520636f6e74726163747300000000006044820152606490fd5b90503b151584610225565b60405162461bcd60e51b815260206004820152601560248201527410dbdb9d1c9858dd1cc8185b1c9958591e481cd95d605a1b6044820152606490fd5b506001546001600160a01b031615610215565b3461006057600036600319011261006057602060ff60045460181c16604051908152f35b34610060576000366003190112610060576000546040516001600160a01b039091168152602090f35b3461006057600036600319011261006057602060ff60045460101c16604051908152f35b346100605760203660031901126100605760043560ff811680820361006057600a6103d191106105fa565b63ff0000006004549160181b169063ff000000191617600455600080f35b3461006057600036600319011261006057602060ff60045416604051908152f35b34610060576000366003190112610060576002546040516001600160a01b039091168152602090f35b346100605760203660031901126100605760043560ff811680820361006057600a61046491106105fa565b61ff006004549160081b169061ff00191617600455600080f35b346100605760003660031901126100605733600052600360205260ff604060002054166104e6573360005260036020526040600020600160ff19825416179055337fede75db818d65d6fa469c1d1d29e60efa868f53d35ab0880f4dd42d1142262ca600080a2005b60405162461bcd60e51b815260206004820152601460248201527320b63932b0b23c9030b71037b933b0b734bd32b960611b6044820152606490fd5b346100605760203660031901126100605760043560ff81168091036100605761054d600a82106105fa565b60ff196004541617600455600080f35b3461006057600036600319011261006057602060ff60045460081c16604051908152f35b34610060576020366003190112610060576001600160a01b036105a26105e4565b166000526003602052602060ff604060002054166040519015158152f35b34610060576000366003190112610060576001546001600160a01b03168152602090f35b600435906001600160a01b038216820361006057565b1561060157565b60405162461bcd60e51b815260206004820152602260248201527f506c6174666f726d20666565206d757374206265206c657373207468616e2031604482015261302560f01b6064820152608490fd5b1561065857565b60405162461bcd60e51b815260206004820152601a60248201527f4e6f7420617574686f72697a65643a204f6e6c79206f776e65720000000000006044820152606490fdfea2646970667358221220e1fef58e381b16ca518c739ff6b734f40dd016c2ec9af21a50f5d99de068d14564736f6c634300081c0033",
  "linkReferences": {},
  "deployedLinkReferences": {}
}